{
  "_format": "hh-sol-artifact-1",
  "contractName": "LostAndFound",
  "sourceName": "contracts/LostAndFound.sol",
  "abi": [
    {
      "inputs": [],
      "stateMutability": "nonpayable",
      "type": "constructor"
    },
    {
      "anonymous": false,
      "inputs": [
        {
          "indexed": false,
          "internalType": "uint256",
          "name": "id",
          "type": "uint256"
        },
        {
          "indexed": false,
          "internalType": "address",
          "name": "finder",
          "type": "address"
        }
      ],
      "name": "FoundItemReported",
      "type": "event"
    },
    {
      "anonymous": false,
      "inputs": [
        {
          "indexed": false,
          "internalType": "uint256",
          "name": "foundItemId",
          "type": "uint256"
        },
        {
          "indexed": false,
          "internalType": "address",
          "name": "claimant",
          "type": "address"
        }
      ],
      "name": "ItemClaimed",
      "type": "event"
    },
    {
      "anonymous": false,
      "inputs": [
        {
          "indexed": false,
          "internalType": "uint256",
          "name": "id",
          "type": "uint256"
        },
        {
          "indexed": false,
          "internalType": "address",
          "name": "reporter",
          "type": "address"
        }
      ],
      "name": "LostItemReported",
      "type": "event"
    },
    {
      "anonymous": false,
      "inputs": [
        {
          "indexed": false,
          "internalType": "address",
          "name": "userAddress",
          "type": "address"
        },
        {
          "indexed": false,
          "internalType": "string",
          "name": "username",
          "type": "string"
        }
      ],
      "name": "UserRegistered",
      "type": "event"
    },
    {
      "inputs": [
        {
          "internalType": "uint256",
          "name": "_foundItemId",
          "type": "uint256"
        }
      ],
      "name": "claimItem",
      "outputs": [],
      "stateMutability": "nonpayable",
      "type": "function"
    },
    {
      "inputs": [],
      "name": "foundItemCount",
      "outputs": [
        {
          "internalType": "uint256",
          "name": "",
          "type": "uint256"
        }
      ],
      "stateMutability": "view",
      "type": "function"
    },
    {
      "inputs": [
        {
          "internalType": "uint256",
          "name": "",
          "type": "uint256"
        }
      ],
      "name": "foundItems",
      "outputs": [
        {
          "internalType": "uint256",
          "name": "id",
          "type": "uint256"
        },
        {
          "internalType": "address",
          "name": "finder",
          "type": "address"
        },
        {
          "internalType": "string",
          "name": "name",
          "type": "string"
        },
        {
          "internalType": "string",
          "name": "description",
          "type": "string"
        },
        {
          "internalType": "string",
          "name": "location",
          "type": "string"
        },
        {
          "internalType": "uint256",
          "name": "dateReported",
          "type": "uint256"
        },
        {
          "internalType": "bool",
          "name": "claimed",
          "type": "bool"
        }
      ],
      "stateMutability": "view",
      "type": "function"
    },
    {
      "inputs": [],
      "name": "getItemCount",
      "outputs": [
        {
          "internalType": "uint256",
          "name": "",
          "type": "uint256"
        }
      ],
      "stateMutability": "view",
      "type": "function"
    },
    {
      "inputs": [],
      "name": "lostItemCount",
      "outputs": [
        {
          "internalType": "uint256",
          "name": "",
          "type": "uint256"
        }
      ],
      "stateMutability": "view",
      "type": "function"
    },
    {
      "inputs": [
        {
          "internalType": "uint256",
          "name": "",
          "type": "uint256"
        }
      ],
      "name": "lostItems",
      "outputs": [
        {
          "internalType": "uint256",
          "name": "id",
          "type": "uint256"
        },
        {
          "internalType": "address",
          "name": "reporter",
          "type": "address"
        },
        {
          "internalType": "string",
          "name": "name",
          "type": "string"
        },
        {
          "internalType": "string",
          "name": "description",
          "type": "string"
        },
        {
          "internalType": "string",
          "name": "location",
          "type": "string"
        },
        {
          "internalType": "uint256",
          "name": "dateReported",
          "type": "uint256"
        },
        {
          "internalType": "bool",
          "name": "resolved",
          "type": "bool"
        }
      ],
      "stateMutability": "view",
      "type": "function"
    },
    {
      "inputs": [],
      "name": "owner",
      "outputs": [
        {
          "internalType": "address",
          "name": "",
          "type": "address"
        }
      ],
      "stateMutability": "view",
      "type": "function"
    },
    {
      "inputs": [
        {
          "internalType": "string",
          "name": "_username",
          "type": "string"
        },
        {
          "internalType": "string",
          "name": "_email",
          "type": "string"
        },
        {
          "internalType": "string",
          "name": "_phoneNumber",
          "type": "string"
        }
      ],
      "name": "registerUser",
      "outputs": [],
      "stateMutability": "nonpayable",
      "type": "function"
    },
    {
      "inputs": [
        {
          "internalType": "string",
          "name": "_name",
          "type": "string"
        },
        {
          "internalType": "string",
          "name": "_description",
          "type": "string"
        },
        {
          "internalType": "string",
          "name": "_location",
          "type": "string"
        }
      ],
      "name": "reportFoundItem",
      "outputs": [],
      "stateMutability": "nonpayable",
      "type": "function"
    },
    {
      "inputs": [
        {
          "internalType": "string",
          "name": "_name",
          "type": "string"
        },
        {
          "internalType": "string",
          "name": "_description",
          "type": "string"
        },
        {
          "internalType": "string",
          "name": "_location",
          "type": "string"
        }
      ],
      "name": "reportLostItem",
      "outputs": [],
      "stateMutability": "nonpayable",
      "type": "function"
    },
    {
      "inputs": [
        {
          "internalType": "uint256",
          "name": "_lostItemId",
          "type": "uint256"
        }
      ],
      "name": "resolveLostItem",
      "outputs": [],
      "stateMutability": "nonpayable",
      "type": "function"
    },
    {
      "inputs": [
        {
          "internalType": "address",
          "name": "",
          "type": "address"
        }
      ],
      "name": "users",
      "outputs": [
        {
          "internalType": "string",
          "name": "username",
          "type": "string"
        },
        {
          "internalType": "string",
          "name": "email",
          "type": "string"
        },
        {
          "internalType": "string",
          "name": "phoneNumber",
          "type": "string"
        },
        {
          "internalType": "bool",
          "name": "isRegistered",
          "type": "bool"
        }
      ],
      "stateMutability": "view",
      "type": "function"
    }
  ],
  "bytecode": "0x6080604052348015600f57600080fd5b50600160008190555033600360006101000a81548173ffffffffffffffffffffffffffffffffffffffff021916908373ffffffffffffffffffffffffffffffffffffffff160217905550611bf9806100686000396000f3fe608060405234801561001057600080fd5b50600436106100b45760003560e01c80638da5cb5b116100715780638da5cb5b1461018157806399f932db1461019f5780639e8d43a2146101bb578063a87430ba146101f1578063d637dcfa14610224578063febbf62114610240576100b4565b806332d36eab146100b95780634ab556a3146100d757806362e67053146100f55780637749cf231461012b5780637da393e0146101495780637f541d7514610165575b600080fd5b6100c161025c565b6040516100ce919061104b565b60405180910390f35b6100df610262565b6040516100ec919061104b565b60405180910390f35b61010f600480360381019061010a91906110a6565b610268565b60405161012297969594939291906111bf565b60405180910390f35b61013361046f565b604051610140919061104b565b60405180910390f35b610163600480360381019061015e91906110a6565b610486565b005b61017f600480360381019061017a9190611378565b6105eb565b005b610189610766565b604051610196919061141f565b60405180910390f35b6101b960048036038101906101b49190611378565b61078c565b005b6101d560048036038101906101d091906110a6565b610907565b6040516101e897969594939291906111bf565b60405180910390f35b61020b60048036038101906102069190611466565b610b0e565b60405161021b9493929190611493565b60405180910390f35b61023e60048036038101906102399190611378565b610ce3565b005b61025a600480360381019061025591906110a6565b610ebd565b005b60015481565b60025481565b60066020528060005260406000206000915090508060000154908060010160009054906101000a900473ffffffffffffffffffffffffffffffffffffffff16908060020180546102b79061151c565b80601f01602080910402602001604051908101604052809291908181526020018280546102e39061151c565b80156103305780601f1061030557610100808354040283529160200191610330565b820191906000526020600020905b81548152906001019060200180831161031357829003601f168201915b5050505050908060030180546103459061151c565b80601f01602080910402602001604051908101604052809291908181526020018280546103719061151c565b80156103be5780601f10610393576101008083540402835291602001916103be565b820191906000526020600020905b8154815290600101906020018083116103a157829003601f168201915b5050505050908060040180546103d39061151c565b80601f01602080910402602001604051908101604052809291908181526020018280546103ff9061151c565b801561044c5780601f106104215761010080835404028352916020019161044c565b820191906000526020600020905b81548152906001019060200180831161042f57829003601f168201915b5050505050908060050154908060060160009054906101000a900460ff16905087565b6000600254600154610481919061157c565b905090565b61048e610fd9565b60006006600083815260200190815260200160002090508060060160009054906101000a900460ff16156104f7576040517f08c379a00000000000000000000000000000000000000000000000000000000081526004016104ee906115fc565b60405180910390fd5b3373ffffffffffffffffffffffffffffffffffffffff168160010160009054906101000a900473ffffffffffffffffffffffffffffffffffffffff1673ffffffffffffffffffffffffffffffffffffffff1603610589576040517f08c379a000000000000000000000000000000000000000000000000000000000815260040161058090611668565b60405180910390fd5b60018160060160006101000a81548160ff0219169083151502179055507ff13adb02c379c5db4cd5a23aa9bca3fd0b3e0017c82d0aac2e656994f24d053582336040516105d7929190611688565b60405180910390a1506105e8611028565b50565b600260008154809291906105fe906116b1565b91905055506040518060e0016040528060025481526020013373ffffffffffffffffffffffffffffffffffffffff168152602001848152602001838152602001828152602001428152602001600015158152506006600060025481526020019081526020016000206000820151816000015560208201518160010160006101000a81548173ffffffffffffffffffffffffffffffffffffffff021916908373ffffffffffffffffffffffffffffffffffffffff16021790555060408201518160020190816106cc91906118a5565b5060608201518160030190816106e291906118a5565b5060808201518160040190816106f891906118a5565b5060a0820151816005015560c08201518160060160006101000a81548160ff0219169083151502179055509050507ff03b12d54e573f86c5bbe70759ed80065ac4afc53bf39b65830adaf131d6629560025433604051610759929190611688565b60405180910390a1505050565b600360009054906101000a900473ffffffffffffffffffffffffffffffffffffffff1681565b6001600081548092919061079f906116b1565b91905055506040518060e0016040528060015481526020013373ffffffffffffffffffffffffffffffffffffffff168152602001848152602001838152602001828152602001428152602001600015158152506005600060015481526020019081526020016000206000820151816000015560208201518160010160006101000a81548173ffffffffffffffffffffffffffffffffffffffff021916908373ffffffffffffffffffffffffffffffffffffffff160217905550604082015181600201908161086d91906118a5565b50606082015181600301908161088391906118a5565b50608082015181600401908161089991906118a5565b5060a0820151816005015560c08201518160060160006101000a81548160ff0219169083151502179055509050507fbbf78d4f5e45b6fc51ef62532787a866935bdbe13859b1e7b2b11d8e6a5c1f7d600154336040516108fa929190611688565b60405180910390a1505050565b60056020528060005260406000206000915090508060000154908060010160009054906101000a900473ffffffffffffffffffffffffffffffffffffffff16908060020180546109569061151c565b80601f01602080910402602001604051908101604052809291908181526020018280546109829061151c565b80156109cf5780601f106109a4576101008083540402835291602001916109cf565b820191906000526020600020905b8154815290600101906020018083116109b257829003601f168201915b5050505050908060030180546109e49061151c565b80601f0160208091040260200160405190810160405280929190818152602001828054610a109061151c565b8015610a5d5780601f10610a3257610100808354040283529160200191610a5d565b820191906000526020600020905b815481529060010190602001808311610a4057829003601f168201915b505050505090806004018054610a729061151c565b80601f0160208091040260200160405190810160405280929190818152602001828054610a9e9061151c565b8015610aeb5780601f10610ac057610100808354040283529160200191610aeb565b820191906000526020600020905b815481529060010190602001808311610ace57829003601f168201915b5050505050908060050154908060060160009054906101000a900460ff16905087565b6004602052806000526040600020600091509050806000018054610b319061151c565b80601f0160208091040260200160405190810160405280929190818152602001828054610b5d9061151c565b8015610baa5780601f10610b7f57610100808354040283529160200191610baa565b820191906000526020600020905b815481529060010190602001808311610b8d57829003601f168201915b505050505090806001018054610bbf9061151c565b80601f0160208091040260200160405190810160405280929190818152602001828054610beb9061151c565b8015610c385780601f10610c0d57610100808354040283529160200191610c38565b820191906000526020600020905b815481529060010190602001808311610c1b57829003601f168201915b505050505090806002018054610c4d9061151c565b80601f0160208091040260200160405190810160405280929190818152602001828054610c799061151c565b8015610cc65780601f10610c9b57610100808354040283529160200191610cc6565b820191906000526020600020905b815481529060010190602001808311610ca957829003601f168201915b5050505050908060030160009054906101000a900460ff16905084565b600460003373ffffffffffffffffffffffffffffffffffffffff1673ffffffffffffffffffffffffffffffffffffffff16815260200190815260200160002060030160009054906101000a900460ff1615610d73576040517f08c379a0000000000000000000000000000000000000000000000000000000008152600401610d6a906119c3565b60405180910390fd5b6000835111610db7576040517f08c379a0000000000000000000000000000000000000000000000000000000008152600401610dae90611a2f565b60405180910390fd5b604051806080016040528084815260200183815260200182815260200160011515815250600460003373ffffffffffffffffffffffffffffffffffffffff1673ffffffffffffffffffffffffffffffffffffffff1681526020019081526020016000206000820151816000019081610e2f91906118a5565b506020820151816001019081610e4591906118a5565b506040820151816002019081610e5b91906118a5565b5060608201518160030160006101000a81548160ff0219169083151502179055509050507f48cac28ad4dc618e15f4c2dd5e97751182f166de97b25618318b2112aa951a2f3384604051610eb0929190611a4f565b60405180910390a1505050565b60006005600083815260200190815260200160002090503373ffffffffffffffffffffffffffffffffffffffff168160010160009054906101000a900473ffffffffffffffffffffffffffffffffffffffff1673ffffffffffffffffffffffffffffffffffffffff1614610f66576040517f08c379a0000000000000000000000000000000000000000000000000000000008152600401610f5d90611acb565b60405180910390fd5b8060060160009054906101000a900460ff1615610fb8576040517f08c379a0000000000000000000000000000000000000000000000000000000008152600401610faf90611b37565b60405180910390fd5b60018160060160006101000a81548160ff0219169083151502179055505050565b60026000540361101e576040517f08c379a000000000000000000000000000000000000000000000000000000000815260040161101590611ba3565b60405180910390fd5b6002600081905550565b6001600081905550565b6000819050919050565b61104581611032565b82525050565b6000602082019050611060600083018461103c565b92915050565b6000604051905090565b600080fd5b600080fd5b61108381611032565b811461108e57600080fd5b50565b6000813590506110a08161107a565b92915050565b6000602082840312156110bc576110bb611070565b5b60006110ca84828501611091565b91505092915050565b600073ffffffffffffffffffffffffffffffffffffffff82169050919050565b60006110fe826110d3565b9050919050565b61110e816110f3565b82525050565b600081519050919050565b600082825260208201905092915050565b60005b8381101561114e578082015181840152602081019050611133565b60008484015250505050565b6000601f19601f8301169050919050565b600061117682611114565b611180818561111f565b9350611190818560208601611130565b6111998161115a565b840191505092915050565b60008115159050919050565b6111b9816111a4565b82525050565b600060e0820190506111d4600083018a61103c565b6111e16020830189611105565b81810360408301526111f3818861116b565b90508181036060830152611207818761116b565b9050818103608083015261121b818661116b565b905061122a60a083018561103c565b61123760c08301846111b0565b98975050505050505050565b600080fd5b600080fd5b7f4e487b7100000000000000000000000000000000000000000000000000000000600052604160045260246000fd5b6112858261115a565b810181811067ffffffffffffffff821117156112a4576112a361124d565b5b80604052505050565b60006112b7611066565b90506112c3828261127c565b919050565b600067ffffffffffffffff8211156112e3576112e261124d565b5b6112ec8261115a565b9050602081019050919050565b82818337600083830152505050565b600061131b611316846112c8565b6112ad565b90508281526020810184848401111561133757611336611248565b5b6113428482856112f9565b509392505050565b600082601f83011261135f5761135e611243565b5b813561136f848260208601611308565b91505092915050565b60008060006060848603121561139157611390611070565b5b600084013567ffffffffffffffff8111156113af576113ae611075565b5b6113bb8682870161134a565b935050602084013567ffffffffffffffff8111156113dc576113db611075565b5b6113e88682870161134a565b925050604084013567ffffffffffffffff81111561140957611408611075565b5b6114158682870161134a565b9150509250925092565b60006020820190506114346000830184611105565b92915050565b611443816110f3565b811461144e57600080fd5b50565b6000813590506114608161143a565b92915050565b60006020828403121561147c5761147b611070565b5b600061148a84828501611451565b91505092915050565b600060808201905081810360008301526114ad818761116b565b905081810360208301526114c1818661116b565b905081810360408301526114d5818561116b565b90506114e460608301846111b0565b95945050505050565b7f4e487b7100000000000000000000000000000000000000000000000000000000600052602260045260246000fd5b6000600282049050600182168061153457607f821691505b602082108103611547576115466114ed565b5b50919050565b7f4e487b7100000000000000000000000000000000000000000000000000000000600052601160045260246000fd5b600061158782611032565b915061159283611032565b92508282019050808211156115aa576115a961154d565b5b92915050565b7f416c726561647920636c61696d65640000000000000000000000000000000000600082015250565b60006115e6600f8361111f565b91506115f1826115b0565b602082019050919050565b60006020820190508181036000830152611615816115d9565b9050919050565b7f46696e6465722063616e6e6f7420636c61696d00000000000000000000000000600082015250565b600061165260138361111f565b915061165d8261161c565b602082019050919050565b6000602082019050818103600083015261168181611645565b9050919050565b600060408201905061169d600083018561103c565b6116aa6020830184611105565b9392505050565b60006116bc82611032565b91507fffffffffffffffffffffffffffffffffffffffffffffffffffffffffffffffff82036116ee576116ed61154d565b5b600182019050919050565b60008190508160005260206000209050919050565b60006020601f8301049050919050565b600082821b905092915050565b60006008830261175b7fffffffffffffffffffffffffffffffffffffffffffffffffffffffffffffffff8261171e565b611765868361171e565b95508019841693508086168417925050509392505050565b6000819050919050565b60006117a261179d61179884611032565b61177d565b611032565b9050919050565b6000819050919050565b6117bc83611787565b6117d06117c8826117a9565b84845461172b565b825550505050565b600090565b6117e56117d8565b6117f08184846117b3565b505050565b5b81811015611814576118096000826117dd565b6001810190506117f6565b5050565b601f8211156118595761182a816116f9565b6118338461170e565b81016020851015611842578190505b61185661184e8561170e565b8301826117f5565b50505b505050565b600082821c905092915050565b600061187c6000198460080261185e565b1980831691505092915050565b6000611895838361186b565b9150826002028217905092915050565b6118ae82611114565b67ffffffffffffffff8111156118c7576118c661124d565b5b6118d1825461151c565b6118dc828285611818565b600060209050601f83116001811461190f57600084156118fd578287015190505b6119078582611889565b86555061196f565b601f19841661191d866116f9565b60005b8281101561194557848901518255600182019150602085019450602081019050611920565b86831015611962578489015161195e601f89168261186b565b8355505b6001600288020188555050505b505050505050565b7f5573657220616c72656164792072656769737465726564000000000000000000600082015250565b60006119ad60178361111f565b91506119b882611977565b602082019050919050565b600060208201905081810360008301526119dc816119a0565b9050919050565b7f557365726e616d652063616e6e6f7420626520656d7074790000000000000000600082015250565b6000611a1960188361111f565b9150611a24826119e3565b602082019050919050565b60006020820190508181036000830152611a4881611a0c565b9050919050565b6000604082019050611a646000830185611105565b8181036020830152611a76818461116b565b90509392505050565b7f4e6f7420796f7572207265706f72740000000000000000000000000000000000600082015250565b6000611ab5600f8361111f565b9150611ac082611a7f565b602082019050919050565b60006020820190508181036000830152611ae481611aa8565b9050919050565b7f416c7265616479207265736f6c76656400000000000000000000000000000000600082015250565b6000611b2160108361111f565b9150611b2c82611aeb565b602082019050919050565b60006020820190508181036000830152611b5081611b14565b9050919050565b7f5265656e7472616e637947756172643a207265656e7472616e742063616c6c00600082015250565b6000611b8d601f8361111f565b9150611b9882611b57565b602082019050919050565b60006020820190508181036000830152611bbc81611b80565b905091905056fea2646970667358221220cd02413bd8e2c22ac9f8703b1ab7fb55321f953368f3aa6a18cbb6d24baba11764736f6c634300081c0033",
  "linkReferences": {},
  "deployedLinkReferences": {}
}